{
  "_format": "hh-sol-artifact-1",
  "contractName": "NFTMarketplace",
  "sourceName": "contracts/NFTMarketplace.sol",
  "abi": [
    {
      "inputs": [],
      "stateMutability": "nonpayable",
      "type": "constructor"
    },
    {
      "anonymous": false,
      "inputs": [
        {
          "indexed": true,
          "internalType": "address",
          "name": "owner",
          "type": "address"
        },
        {
          "indexed": true,
          "internalType": "address",
          "name": "approved",
          "type": "address"
        },
        {
          "indexed": true,
          "internalType": "uint256",
          "name": "tokenId",
          "type": "uint256"
        }
      ],
      "name": "Approval",
      "type": "event"
    },
    {
      "anonymous": false,
      "inputs": [
        {
          "indexed": true,
          "internalType": "address",
          "name": "owner",
          "type": "address"
        },
        {
          "indexed": true,
          "internalType": "address",
          "name": "operator",
          "type": "address"
        },
        {
          "indexed": false,
          "internalType": "bool",
          "name": "approved",
          "type": "bool"
        }
      ],
      "name": "ApprovalForAll",
      "type": "event"
    },
    {
      "anonymous": false,
      "inputs": [
        {
          "indexed": true,
          "internalType": "address",
          "name": "from",
          "type": "address"
        },
        {
          "indexed": true,
          "internalType": "address",
          "name": "to",
          "type": "address"
        },
        {
          "indexed": true,
          "internalType": "uint256",
          "name": "tokenId",
          "type": "uint256"
        }
      ],
      "name": "Transfer",
      "type": "event"
    },
    {
      "inputs": [
        {
          "internalType": "address",
          "name": "to",
          "type": "address"
        },
        {
          "internalType": "uint256",
          "name": "tokenId",
          "type": "uint256"
        }
      ],
      "name": "approve",
      "outputs": [],
      "stateMutability": "nonpayable",
      "type": "function"
    },
    {
      "inputs": [
        {
          "internalType": "address",
          "name": "owner",
          "type": "address"
        }
      ],
      "name": "balanceOf",
      "outputs": [
        {
          "internalType": "uint256",
          "name": "",
          "type": "uint256"
        }
      ],
      "stateMutability": "view",
      "type": "function"
    },
    {
      "inputs": [
        {
          "internalType": "string",
          "name": "tokenURI",
          "type": "string"
        },
        {
          "internalType": "uint256",
          "name": "price",
          "type": "uint256"
        }
      ],
      "name": "createToken",
      "outputs": [
        {
          "internalType": "uint256",
          "name": "",
          "type": "uint256"
        }
      ],
      "stateMutability": "payable",
      "type": "function"
    },
    {
      "inputs": [
        {
          "internalType": "uint256",
          "name": "tokenId",
          "type": "uint256"
        }
      ],
      "name": "executeSale",
      "outputs": [],
      "stateMutability": "payable",
      "type": "function"
    },
    {
      "inputs": [],
      "name": "getAllNFTs",
      "outputs": [
        {
          "components": [
            {
              "internalType": "uint256",
              "name": "tokenId",
              "type": "uint256"
            },
            {
              "internalType": "address payable",
              "name": "owner",
              "type": "address"
            },
            {
              "internalType": "address payable",
              "name": "seller",
              "type": "address"
            },
            {
              "internalType": "uint256",
              "name": "price",
              "type": "uint256"
            },
            {
              "internalType": "bool",
              "name": "currentlyListed",
              "type": "bool"
            }
          ],
          "internalType": "struct NFTMarketplace.ListsToken[]",
          "name": "",
          "type": "tuple[]"
        }
      ],
      "stateMutability": "view",
      "type": "function"
    },
    {
      "inputs": [
        {
          "internalType": "uint256",
          "name": "tokenId",
          "type": "uint256"
        }
      ],
      "name": "getApproved",
      "outputs": [
        {
          "internalType": "address",
          "name": "",
          "type": "address"
        }
      ],
      "stateMutability": "view",
      "type": "function"
    },
    {
      "inputs": [],
      "name": "getCurrentToken",
      "outputs": [
        {
          "internalType": "uint256",
          "name": "",
          "type": "uint256"
        }
      ],
      "stateMutability": "view",
      "type": "function"
    },
    {
      "inputs": [],
      "name": "getLatestIdListedToken",
      "outputs": [
        {
          "components": [
            {
              "internalType": "uint256",
              "name": "tokenId",
              "type": "uint256"
            },
            {
              "internalType": "address payable",
              "name": "owner",
              "type": "address"
            },
            {
              "internalType": "address payable",
              "name": "seller",
              "type": "address"
            },
            {
              "internalType": "uint256",
              "name": "price",
              "type": "uint256"
            },
            {
              "internalType": "bool",
              "name": "currentlyListed",
              "type": "bool"
            }
          ],
          "internalType": "struct NFTMarketplace.ListsToken",
          "name": "",
          "type": "tuple"
        }
      ],
      "stateMutability": "view",
      "type": "function"
    },
    {
      "inputs": [],
      "name": "getListPrice",
      "outputs": [
        {
          "internalType": "uint256",
          "name": "",
          "type": "uint256"
        }
      ],
      "stateMutability": "view",
      "type": "function"
    },
    {
      "inputs": [
        {
          "internalType": "uint256",
          "name": "tokenId",
          "type": "uint256"
        }
      ],
      "name": "getListedToken",
      "outputs": [
        {
          "components": [
            {
              "internalType": "uint256",
              "name": "tokenId",
              "type": "uint256"
            },
            {
              "internalType": "address payable",
              "name": "owner",
              "type": "address"
            },
            {
              "internalType": "address payable",
              "name": "seller",
              "type": "address"
            },
            {
              "internalType": "uint256",
              "name": "price",
              "type": "uint256"
            },
            {
              "internalType": "bool",
              "name": "currentlyListed",
              "type": "bool"
            }
          ],
          "internalType": "struct NFTMarketplace.ListsToken",
          "name": "",
          "type": "tuple"
        }
      ],
      "stateMutability": "view",
      "type": "function"
    },
    {
      "inputs": [],
      "name": "getMyNFTs",
      "outputs": [
        {
          "components": [
            {
              "internalType": "uint256",
              "name": "tokenId",
              "type": "uint256"
            },
            {
              "internalType": "address payable",
              "name": "owner",
              "type": "address"
            },
            {
              "internalType": "address payable",
              "name": "seller",
              "type": "address"
            },
            {
              "internalType": "uint256",
              "name": "price",
              "type": "uint256"
            },
            {
              "internalType": "bool",
              "name": "currentlyListed",
              "type": "bool"
            }
          ],
          "internalType": "struct NFTMarketplace.ListsToken[]",
          "name": "",
          "type": "tuple[]"
        }
      ],
      "stateMutability": "view",
      "type": "function"
    },
    {
      "inputs": [
        {
          "internalType": "address",
          "name": "owner",
          "type": "address"
        },
        {
          "internalType": "address",
          "name": "operator",
          "type": "address"
        }
      ],
      "name": "isApprovedForAll",
      "outputs": [
        {
          "internalType": "bool",
          "name": "",
          "type": "bool"
        }
      ],
      "stateMutability": "view",
      "type": "function"
    },
    {
      "inputs": [],
      "name": "name",
      "outputs": [
        {
          "internalType": "string",
          "name": "",
          "type": "string"
        }
      ],
      "stateMutability": "view",
      "type": "function"
    },
    {
      "inputs": [
        {
          "internalType": "uint256",
          "name": "tokenId",
          "type": "uint256"
        }
      ],
      "name": "ownerOf",
      "outputs": [
        {
          "internalType": "address",
          "name": "",
          "type": "address"
        }
      ],
      "stateMutability": "view",
      "type": "function"
    },
    {
      "inputs": [
        {
          "internalType": "address",
          "name": "from",
          "type": "address"
        },
        {
          "internalType": "address",
          "name": "to",
          "type": "address"
        },
        {
          "internalType": "uint256",
          "name": "tokenId",
          "type": "uint256"
        }
      ],
      "name": "safeTransferFrom",
      "outputs": [],
      "stateMutability": "nonpayable",
      "type": "function"
    },
    {
      "inputs": [
        {
          "internalType": "address",
          "name": "from",
          "type": "address"
        },
        {
          "internalType": "address",
          "name": "to",
          "type": "address"
        },
        {
          "internalType": "uint256",
          "name": "tokenId",
          "type": "uint256"
        },
        {
          "internalType": "bytes",
          "name": "data",
          "type": "bytes"
        }
      ],
      "name": "safeTransferFrom",
      "outputs": [],
      "stateMutability": "nonpayable",
      "type": "function"
    },
    {
      "inputs": [
        {
          "internalType": "address",
          "name": "operator",
          "type": "address"
        },
        {
          "internalType": "bool",
          "name": "approved",
          "type": "bool"
        }
      ],
      "name": "setApprovalForAll",
      "outputs": [],
      "stateMutability": "nonpayable",
      "type": "function"
    },
    {
      "inputs": [
        {
          "internalType": "uint256",
          "name": "tokenId",
          "type": "uint256"
        }
      ],
      "name": "setListItem",
      "outputs": [],
      "stateMutability": "nonpayable",
      "type": "function"
    },
    {
      "inputs": [
        {
          "internalType": "uint256",
          "name": "tokenId",
          "type": "uint256"
        },
        {
          "internalType": "uint256",
          "name": "price",
          "type": "uint256"
        }
      ],
      "name": "setListedToken",
      "outputs": [],
      "stateMutability": "nonpayable",
      "type": "function"
    },
    {
      "inputs": [
        {
          "internalType": "bytes4",
          "name": "interfaceId",
          "type": "bytes4"
        }
      ],
      "name": "supportsInterface",
      "outputs": [
        {
          "internalType": "bool",
          "name": "",
          "type": "bool"
        }
      ],
      "stateMutability": "view",
      "type": "function"
    },
    {
      "inputs": [],
      "name": "symbol",
      "outputs": [
        {
          "internalType": "string",
          "name": "",
          "type": "string"
        }
      ],
      "stateMutability": "view",
      "type": "function"
    },
    {
      "inputs": [
        {
          "internalType": "uint256",
          "name": "tokenId",
          "type": "uint256"
        }
      ],
      "name": "tokenURI",
      "outputs": [
        {
          "internalType": "string",
          "name": "",
          "type": "string"
        }
      ],
      "stateMutability": "view",
      "type": "function"
    },
    {
      "inputs": [],
      "name": "totalSupply",
      "outputs": [
        {
          "internalType": "uint256",
          "name": "",
          "type": "uint256"
        }
      ],
      "stateMutability": "view",
      "type": "function"
    },
    {
      "inputs": [
        {
          "internalType": "address",
          "name": "from",
          "type": "address"
        },
        {
          "internalType": "address",
          "name": "to",
          "type": "address"
        },
        {
          "internalType": "uint256",
          "name": "tokenId",
          "type": "uint256"
        }
      ],
      "name": "transferFrom",
      "outputs": [],
      "stateMutability": "nonpayable",
      "type": "function"
    },
    {
      "inputs": [
        {
          "internalType": "uint256",
          "name": "_listPrice",
          "type": "uint256"
        }
      ],
      "name": "updateListPrice",
      "outputs": [],
      "stateMutability": "payable",
      "type": "function"
    }
  ],
  "bytecode": "0x60806040526103e8600855662386f26fc10000600b553480156200002257600080fd5b506040518060400160405280600681526020017f536f7572617600000000000000000000000000000000000000000000000000008152506040518060400160405280600281526020017f534d0000000000000000000000000000000000000000000000000000000000008152508160009081620000a0919062000376565b508060019081620000b2919062000376565b50505033600760006101000a81548173ffffffffffffffffffffffffffffffffffffffff021916908373ffffffffffffffffffffffffffffffffffffffff1602179055506200045d565b600081519050919050565b7f4e487b7100000000000000000000000000000000000000000000000000000000600052604160045260246000fd5b7f4e487b7100000000000000000000000000000000000000000000000000000000600052602260045260246000fd5b600060028204905060018216806200017e57607f821691505b60208210810362000194576200019362000136565b5b50919050565b60008190508160005260206000209050919050565b60006020601f8301049050919050565b600082821b905092915050565b600060088302620001fe7fffffffffffffffffffffffffffffffffffffffffffffffffffffffffffffffff82620001bf565b6200020a8683620001bf565b95508019841693508086168417925050509392505050565b6000819050919050565b6000819050919050565b600062000257620002516200024b8462000222565b6200022c565b62000222565b9050919050565b6000819050919050565b620002738362000236565b6200028b62000282826200025e565b848454620001cc565b825550505050565b600090565b620002a262000293565b620002af81848462000268565b505050565b5b81811015620002d757620002cb60008262000298565b600181019050620002b5565b5050565b601f8211156200032657620002f0816200019a565b620002fb84620001af565b810160208510156200030b578190505b620003236200031a85620001af565b830182620002b4565b50505b505050565b600082821c905092915050565b60006200034b600019846008026200032b565b1980831691505092915050565b600062000366838362000338565b9150826002028217905092915050565b6200038182620000fc565b67ffffffffffffffff8111156200039d576200039c62000107565b5b620003a9825462000165565b620003b6828285620002db565b600060209050601f831160018114620003ee5760008415620003d9578287015190505b620003e5858262000358565b86555062000455565b601f198416620003fe866200019a565b60005b82811015620004285784890151825560018201915060208501945060208101905062000401565b8683101562000448578489015162000444601f89168262000338565b8355505b6001600288020188555050505b505050505050565b613fc3806200046d6000396000f3fe6080604052600436106101665760003560e01c806370bb609a116100d1578063b88d4fde1161008a578063e0391b0911610064578063e0391b0914610539578063e985e9c514610564578063edf18337146105a1578063ef2d1746146105ca57610166565b8063b88d4fde146104b7578063c322579c146104e0578063c87b56dd146104fc57610166565b806370bb609a146103af57806372b3b620146103ec57806395d89b411461041c5780639b1225c414610447578063a22cb46514610463578063aa3222e51461048c57610166565b806323b872dd1161012357806323b872dd1461028d57806342842e0e146102b6578063629cb2e4146102df5780636352211e1461030a57806368f1945f1461034757806370a082311461037257610166565b806301ffc9a71461016b57806306fdde03146101a8578063081812fc146101d3578063095ea7b314610210578063102534c01461023957806318160ddd14610262575b600080fd5b34801561017757600080fd5b50610192600480360381019061018d919061297b565b6105f5565b60405161019f91906129c3565b60405180910390f35b3480156101b457600080fd5b506101bd6106d7565b6040516101ca9190612a6e565b60405180910390f35b3480156101df57600080fd5b506101fa60048036038101906101f59190612ac6565b610769565b6040516102079190612b34565b60405180910390f35b34801561021c57600080fd5b5061023760048036038101906102329190612b7b565b6107af565b005b34801561024557600080fd5b50610260600480360381019061025b9190612ac6565b6108c6565b005b34801561026e57600080fd5b506102776108f8565b6040516102849190612bca565b60405180910390f35b34801561029957600080fd5b506102b460048036038101906102af9190612be5565b6108fe565b005b3480156102c257600080fd5b506102dd60048036038101906102d89190612be5565b61095e565b005b3480156102eb57600080fd5b506102f461097e565b6040516103019190612d8e565b60405180910390f35b34801561031657600080fd5b50610331600480360381019061032c9190612ac6565b610d5f565b60405161033e9190612b34565b60405180910390f35b34801561035357600080fd5b5061035c610de5565b6040516103699190612bca565b60405180910390f35b34801561037e57600080fd5b5061039960048036038101906103949190612db0565b610def565b6040516103a69190612bca565b60405180910390f35b3480156103bb57600080fd5b506103d660048036038101906103d19190612ac6565b610ea6565b6040516103e39190612e45565b60405180910390f35b61040660048036038101906104019190612f95565b610fae565b6040516104139190612bca565b60405180910390f35b34801561042857600080fd5b5061043161107a565b60405161043e9190612a6e565b60405180910390f35b610461600480360381019061045c9190612ac6565b61110c565b005b34801561046f57600080fd5b5061048a6004803603810190610485919061301d565b6112fe565b005b34801561049857600080fd5b506104a1611314565b6040516104ae9190612e45565b60405180910390f35b3480156104c357600080fd5b506104de60048036038101906104d991906130fe565b611429565b005b6104fa60048036038101906104f59190612ac6565b61148b565b005b34801561050857600080fd5b50610523600480360381019061051e9190612ac6565b611525565b6040516105309190612a6e565b60405180910390f35b34801561054557600080fd5b5061054e611637565b60405161055b9190612d8e565b60405180910390f35b34801561057057600080fd5b5061058b60048036038101906105869190613181565b611809565b60405161059891906129c3565b60405180910390f35b3480156105ad57600080fd5b506105c860048036038101906105c391906131c1565b61189d565b005b3480156105d657600080fd5b506105df6119da565b6040516105ec9190612bca565b60405180910390f35b60007f80ac58cd000000000000000000000000000000000000000000000000000000007bffffffffffffffffffffffffffffffffffffffffffffffffffffffff1916827bffffffffffffffffffffffffffffffffffffffffffffffffffffffff191614806106c057507f5b5e139f000000000000000000000000000000000000000000000000000000007bffffffffffffffffffffffffffffffffffffffffffffffffffffffff1916827bffffffffffffffffffffffffffffffffffffffffffffffffffffffff1916145b806106d057506106cf826119eb565b5b9050919050565b6060600080546106e690613230565b80601f016020809104026020016040519081016040528092919081815260200182805461071290613230565b801561075f5780601f106107345761010080835404028352916020019161075f565b820191906000526020600020905b81548152906001019060200180831161074257829003601f168201915b5050505050905090565b600061077482611a55565b6004600083815260200190815260200160002060009054906101000a900473ffffffffffffffffffffffffffffffffffffffff169050919050565b60006107ba82610d5f565b90508073ffffffffffffffffffffffffffffffffffffffff168373ffffffffffffffffffffffffffffffffffffffff160361082a576040517f08c379a0000000000000000000000000000000000000000000000000000000008152600401610821906132d3565b60405180910390fd5b8073ffffffffffffffffffffffffffffffffffffffff16610849611aa0565b73ffffffffffffffffffffffffffffffffffffffff161480610878575061087781610872611aa0565b611809565b5b6108b7576040517f08c379a00000000000000000000000000000000000000000000000000000000081526004016108ae90613365565b60405180910390fd5b6108c18383611aa8565b505050565b6001600c600083815260200190815260200160002060040160006101000a81548160ff02191690831515021790555050565b60085481565b61090f610909611aa0565b82611b61565b61094e576040517f08c379a0000000000000000000000000000000000000000000000000000000008152600401610945906133f7565b60405180910390fd5b610959838383611bf6565b505050565b61097983838360405180602001604052806000815250611429565b505050565b6060600061098c6009611eef565b9050600080600080600090505b84811015610ab2573373ffffffffffffffffffffffffffffffffffffffff16600c60006001846109c99190613446565b815260200190815260200160002060010160009054906101000a900473ffffffffffffffffffffffffffffffffffffffff1673ffffffffffffffffffffffffffffffffffffffff161480610a8a57503373ffffffffffffffffffffffffffffffffffffffff16600c6000600184610a409190613446565b815260200190815260200160002060020160009054906101000a900473ffffffffffffffffffffffffffffffffffffffff1673ffffffffffffffffffffffffffffffffffffffff16145b15610a9f57600184610a9c9190613446565b93505b8080610aaa9061347a565b915050610999565b5060008367ffffffffffffffff811115610acf57610ace612e6a565b5b604051908082528060200260200182016040528015610b0857816020015b610af56128b2565b815260200190600190039081610aed5790505b50905060005b85811015610d53573373ffffffffffffffffffffffffffffffffffffffff16600c6000600184610b3e9190613446565b815260200190815260200160002060010160009054906101000a900473ffffffffffffffffffffffffffffffffffffffff1673ffffffffffffffffffffffffffffffffffffffff161480610bff57503373ffffffffffffffffffffffffffffffffffffffff16600c6000600184610bb59190613446565b815260200190815260200160002060020160009054906101000a900473ffffffffffffffffffffffffffffffffffffffff1673ffffffffffffffffffffffffffffffffffffffff16145b15610d4057600181610c119190613446565b92506000600c60008581526020019081526020016000209050806040518060a0016040529081600082015481526020016001820160009054906101000a900473ffffffffffffffffffffffffffffffffffffffff1673ffffffffffffffffffffffffffffffffffffffff1673ffffffffffffffffffffffffffffffffffffffff1681526020016002820160009054906101000a900473ffffffffffffffffffffffffffffffffffffffff1673ffffffffffffffffffffffffffffffffffffffff1673ffffffffffffffffffffffffffffffffffffffff168152602001600382015481526020016004820160009054906101000a900460ff161515151581525050838681518110610d2457610d236134c2565b5b6020026020010181905250600185610d3c9190613446565b9450505b8080610d4b9061347a565b915050610b0e565b50809550505050505090565b600080610d6b83611efd565b9050600073ffffffffffffffffffffffffffffffffffffffff168173ffffffffffffffffffffffffffffffffffffffff1603610ddc576040517f08c379a0000000000000000000000000000000000000000000000000000000008152600401610dd39061353d565b60405180910390fd5b80915050919050565b6000600b54905090565b60008073ffffffffffffffffffffffffffffffffffffffff168273ffffffffffffffffffffffffffffffffffffffff1603610e5f576040517f08c379a0000000000000000000000000000000000000000000000000000000008152600401610e56906135cf565b60405180910390fd5b600360008373ffffffffffffffffffffffffffffffffffffffff1673ffffffffffffffffffffffffffffffffffffffff168152602001908152602001600020549050919050565b610eae6128b2565b600c60008381526020019081526020016000206040518060a0016040529081600082015481526020016001820160009054906101000a900473ffffffffffffffffffffffffffffffffffffffff1673ffffffffffffffffffffffffffffffffffffffff1673ffffffffffffffffffffffffffffffffffffffff1681526020016002820160009054906101000a900473ffffffffffffffffffffffffffffffffffffffff1673ffffffffffffffffffffffffffffffffffffffff1673ffffffffffffffffffffffffffffffffffffffff168152602001600382015481526020016004820160009054906101000a900460ff1615151515815250509050919050565b6000610fba6009611f3a565b6000610fc66009611eef565b9050600b5483101561100d576040517f08c379a000000000000000000000000000000000000000000000000000000000815260040161100490613661565b60405180910390fd5b600854811115611052576040517f08c379a0000000000000000000000000000000000000000000000000000000008152600401611049906136cd565b60405180910390fd5b61105c3382611f50565b6110668185611f6e565b611070818461189d565b8091505092915050565b60606001805461108990613230565b80601f01602080910402602001604051908101604052809291908181526020018280546110b590613230565b80156111025780601f106110d757610100808354040283529160200191611102565b820191906000526020600020905b8154815290600101906020018083116110e557829003601f168201915b5050505050905090565b6000600c60008381526020019081526020016000206003015490506000600c600084815260200190815260200160002060020160009054906101000a900473ffffffffffffffffffffffffffffffffffffffff1690508134146111a4576040517f08c379a000000000000000000000000000000000000000000000000000000000815260040161119b9061375f565b60405180910390fd5b6001600c600085815260200190815260200160002060040160006101000a81548160ff02191690831515021790555033600c600085815260200190815260200160002060020160006101000a81548173ffffffffffffffffffffffffffffffffffffffff021916908373ffffffffffffffffffffffffffffffffffffffff160217905550611232600a611f3a565b61123d303385611bf6565b61124730846107af565b600760009054906101000a900473ffffffffffffffffffffffffffffffffffffffff1673ffffffffffffffffffffffffffffffffffffffff166108fc600b549081150290604051600060405180830381858888f193505050501580156112b1573d6000803e3d6000fd5b508073ffffffffffffffffffffffffffffffffffffffff166108fc349081150290604051600060405180830381858888f193505050501580156112f8573d6000803e3d6000fd5b50505050565b611310611309611aa0565b8383611fdb565b5050565b61131c6128b2565b60006113286009611eef565b9050600c60008281526020019081526020016000206040518060a0016040529081600082015481526020016001820160009054906101000a900473ffffffffffffffffffffffffffffffffffffffff1673ffffffffffffffffffffffffffffffffffffffff1673ffffffffffffffffffffffffffffffffffffffff1681526020016002820160009054906101000a900473ffffffffffffffffffffffffffffffffffffffff1673ffffffffffffffffffffffffffffffffffffffff1673ffffffffffffffffffffffffffffffffffffffff168152602001600382015481526020016004820160009054906101000a900460ff16151515158152505091505090565b61143a611434611aa0565b83611b61565b611479576040517f08c379a0000000000000000000000000000000000000000000000000000000008152600401611470906133f7565b60405180910390fd5b61148584848484612147565b50505050565b3373ffffffffffffffffffffffffffffffffffffffff16600760009054906101000a900473ffffffffffffffffffffffffffffffffffffffff1673ffffffffffffffffffffffffffffffffffffffff161461151b576040517f08c379a0000000000000000000000000000000000000000000000000000000008152600401611512906137f1565b60405180910390fd5b80600b8190555050565b606061153082611a55565b600060066000848152602001908152602001600020805461155090613230565b80601f016020809104026020016040519081016040528092919081815260200182805461157c90613230565b80156115c95780601f1061159e576101008083540402835291602001916115c9565b820191906000526020600020905b8154815290600101906020018083116115ac57829003601f168201915b5050505050905060006115da6121a3565b905060008151036115ef578192505050611632565b60008251111561162457808260405160200161160c92919061384d565b60405160208183030381529060405292505050611632565b61162d846121ba565b925050505b919050565b606060006116456009611eef565b905060008167ffffffffffffffff81111561166357611662612e6a565b5b60405190808252806020026020018201604052801561169c57816020015b6116896128b2565b8152602001906001900390816116815790505b50905060008080600090505b848110156117fe576001816116bd9190613446565b91506000600c60008481526020019081526020016000209050806040518060a0016040529081600082015481526020016001820160009054906101000a900473ffffffffffffffffffffffffffffffffffffffff1673ffffffffffffffffffffffffffffffffffffffff1673ffffffffffffffffffffffffffffffffffffffff1681526020016002820160009054906101000a900473ffffffffffffffffffffffffffffffffffffffff1673ffffffffffffffffffffffffffffffffffffffff1673ffffffffffffffffffffffffffffffffffffffff168152602001600382015481526020016004820160009054906101000a900460ff1615151515815250508585815181106117d0576117cf6134c2565b5b60200260200101819052506001846117e89190613446565b93505080806117f69061347a565b9150506116a8565b508294505050505090565b6000600560008473ffffffffffffffffffffffffffffffffffffffff1673ffffffffffffffffffffffffffffffffffffffff16815260200190815260200160002060008373ffffffffffffffffffffffffffffffffffffffff1673ffffffffffffffffffffffffffffffffffffffff16815260200190815260200160002060009054906101000a900460ff16905092915050565b6040518060a001604052808381526020013073ffffffffffffffffffffffffffffffffffffffff1681526020013373ffffffffffffffffffffffffffffffffffffffff16815260200182815260200160011515815250600c60008481526020019081526020016000206000820151816000015560208201518160010160006101000a81548173ffffffffffffffffffffffffffffffffffffffff021916908373ffffffffffffffffffffffffffffffffffffffff16021790555060408201518160020160006101000a81548173ffffffffffffffffffffffffffffffffffffffff021916908373ffffffffffffffffffffffffffffffffffffffff1602179055506060820151816003015560808201518160040160006101000a81548160ff0219169083151502179055509050506119d6333084611bf6565b5050565b60006119e66009611eef565b905090565b60007f01ffc9a7000000000000000000000000000000000000000000000000000000007bffffffffffffffffffffffffffffffffffffffffffffffffffffffff1916827bffffffffffffffffffffffffffffffffffffffffffffffffffffffff1916149050919050565b611a5e81612222565b611a9d576040517f08c379a0000000000000000000000000000000000000000000000000000000008152600401611a949061353d565b60405180910390fd5b50565b600033905090565b816004600083815260200190815260200160002060006101000a81548173ffffffffffffffffffffffffffffffffffffffff021916908373ffffffffffffffffffffffffffffffffffffffff160217905550808273ffffffffffffffffffffffffffffffffffffffff16611b1b83610d5f565b73ffffffffffffffffffffffffffffffffffffffff167f8c5be1e5ebec7d5bd14f71427d1e84f3dd0314c0f7b2291e5b200ac8c7c3b92560405160405180910390a45050565b600080611b6d83610d5f565b90508073ffffffffffffffffffffffffffffffffffffffff168473ffffffffffffffffffffffffffffffffffffffff161480611baf5750611bae8185611809565b5b80611bed57508373ffffffffffffffffffffffffffffffffffffffff16611bd584610769565b73ffffffffffffffffffffffffffffffffffffffff16145b91505092915050565b8273ffffffffffffffffffffffffffffffffffffffff16611c1682610d5f565b73ffffffffffffffffffffffffffffffffffffffff1614611c6c576040517f08c379a0000000000000000000000000000000000000000000000000000000008152600401611c63906138e3565b60405180910390fd5b600073ffffffffffffffffffffffffffffffffffffffff168273ffffffffffffffffffffffffffffffffffffffff1603611cdb576040517f08c379a0000000000000000000000000000000000000000000000000000000008152600401611cd290613975565b60405180910390fd5b611ce88383836001612263565b8273ffffffffffffffffffffffffffffffffffffffff16611d0882610d5f565b73ffffffffffffffffffffffffffffffffffffffff1614611d5e576040517f08c379a0000000000000000000000000000000000000000000000000000000008152600401611d55906138e3565b60405180910390fd5b6004600082815260200190815260200160002060006101000a81549073ffffffffffffffffffffffffffffffffffffffff02191690556001600360008573ffffffffffffffffffffffffffffffffffffffff1673ffffffffffffffffffffffffffffffffffffffff168152602001908152602001600020600082825403925050819055506001600360008473ffffffffffffffffffffffffffffffffffffffff1673ffffffffffffffffffffffffffffffffffffffff16815260200190815260200160002060008282540192505081905550816002600083815260200190815260200160002060006101000a81548173ffffffffffffffffffffffffffffffffffffffff021916908373ffffffffffffffffffffffffffffffffffffffff160217905550808273ffffffffffffffffffffffffffffffffffffffff168473ffffffffffffffffffffffffffffffffffffffff167fddf252ad1be2c89b69c2b068fc378daa952ba7f163c4a11628f55a4df523b3ef60405160405180910390a4611eea8383836001612269565b505050565b600081600001549050919050565b60006002600083815260200190815260200160002060009054906101000a900473ffffffffffffffffffffffffffffffffffffffff169050919050565b6001816000016000828254019250508190555050565b611f6a82826040518060200160405280600081525061226f565b5050565b611f7782612222565b611fb6576040517f08c379a0000000000000000000000000000000000000000000000000000000008152600401611fad90613a07565b60405180910390fd5b80600660008481526020019081526020016000209081611fd69190613bd3565b505050565b8173ffffffffffffffffffffffffffffffffffffffff168373ffffffffffffffffffffffffffffffffffffffff1603612049576040517f08c379a000000000000000000000000000000000000000000000000000000000815260040161204090613cf1565b60405180910390fd5b80600560008573ffffffffffffffffffffffffffffffffffffffff1673ffffffffffffffffffffffffffffffffffffffff16815260200190815260200160002060008473ffffffffffffffffffffffffffffffffffffffff1673ffffffffffffffffffffffffffffffffffffffff16815260200190815260200160002060006101000a81548160ff0219169083151502179055508173ffffffffffffffffffffffffffffffffffffffff168373ffffffffffffffffffffffffffffffffffffffff167f17307eab39ab6107e8899845ad3d59bd9653f200f220920489ca2b5937696c318360405161213a91906129c3565b60405180910390a3505050565b612152848484611bf6565b61215e848484846122ca565b61219d576040517f08c379a000000000000000000000000000000000000000000000000000000000815260040161219490613d83565b60405180910390fd5b50505050565b606060405180602001604052806000815250905090565b60606121c582611a55565b60006121cf6121a3565b905060008151116121ef576040518060200160405280600081525061221a565b806121f984612451565b60405160200161220a92919061384d565b6040516020818303038152906040525b915050919050565b60008073ffffffffffffffffffffffffffffffffffffffff1661224483611efd565b73ffffffffffffffffffffffffffffffffffffffff1614159050919050565b50505050565b50505050565b612279838361251f565b61228660008484846122ca565b6122c5576040517f08c379a00000000000000000000000000000000000000000000000000000000081526004016122bc90613d83565b60405180910390fd5b505050565b60006122eb8473ffffffffffffffffffffffffffffffffffffffff1661273c565b15612444578373ffffffffffffffffffffffffffffffffffffffff1663150b7a02612314611aa0565b8786866040518563ffffffff1660e01b81526004016123369493929190613df8565b6020604051808303816000875af192505050801561237257506040513d601f19601f8201168201806040525081019061236f9190613e59565b60015b6123f4573d80600081146123a2576040519150601f19603f3d011682016040523d82523d6000602084013e6123a7565b606091505b5060008151036123ec576040517f08c379a00000000000000000000000000000000000000000000000000000000081526004016123e390613d83565b60405180910390fd5b805181602001fd5b63150b7a0260e01b7bffffffffffffffffffffffffffffffffffffffffffffffffffffffff1916817bffffffffffffffffffffffffffffffffffffffffffffffffffffffff191614915050612449565b600190505b949350505050565b6060600060016124608461275f565b01905060008167ffffffffffffffff81111561247f5761247e612e6a565b5b6040519080825280601f01601f1916602001820160405280156124b15781602001600182028036833780820191505090505b509050600082602001820190505b600115612514578080600190039150507f3031323334353637383961626364656600000000000000000000000000000000600a86061a8153600a858161250857612507613e86565b5b049450600085036124bf575b819350505050919050565b600073ffffffffffffffffffffffffffffffffffffffff168273ffffffffffffffffffffffffffffffffffffffff160361258e576040517f08c379a000000000000000000000000000000000000000000000000000000000815260040161258590613f01565b60405180910390fd5b61259781612222565b156125d7576040517f08c379a00000000000000000000000000000000000000000000000000000000081526004016125ce90613f6d565b60405180910390fd5b6125e5600083836001612263565b6125ee81612222565b1561262e576040517f08c379a000000000000000000000000000000000000000000000000000000000815260040161262590613f6d565b60405180910390fd5b6001600360008473ffffffffffffffffffffffffffffffffffffffff1673ffffffffffffffffffffffffffffffffffffffff16815260200190815260200160002060008282540192505081905550816002600083815260200190815260200160002060006101000a81548173ffffffffffffffffffffffffffffffffffffffff021916908373ffffffffffffffffffffffffffffffffffffffff160217905550808273ffffffffffffffffffffffffffffffffffffffff16600073ffffffffffffffffffffffffffffffffffffffff167fddf252ad1be2c89b69c2b068fc378daa952ba7f163c4a11628f55a4df523b3ef60405160405180910390a4612738600083836001612269565b5050565b6000808273ffffffffffffffffffffffffffffffffffffffff163b119050919050565b600080600090507a184f03e93ff9f4daa797ed6e38ed64bf6a1f01000000000000000083106127bd577a184f03e93ff9f4daa797ed6e38ed64bf6a1f01000000000000000083816127b3576127b2613e86565b5b0492506040810190505b6d04ee2d6d415b85acef810000000083106127fa576d04ee2d6d415b85acef810000000083816127f0576127ef613e86565b5b0492506020810190505b662386f26fc10000831061282957662386f26fc10000838161281f5761281e613e86565b5b0492506010810190505b6305f5e1008310612852576305f5e100838161284857612847613e86565b5b0492506008810190505b612710831061287757612710838161286d5761286c613e86565b5b0492506004810190505b6064831061289a57606483816128905761288f613e86565b5b0492506002810190505b600a83106128a9576001810190505b80915050919050565b6040518060a0016040528060008152602001600073ffffffffffffffffffffffffffffffffffffffff168152602001600073ffffffffffffffffffffffffffffffffffffffff168152602001600081526020016000151581525090565b6000604051905090565b600080fd5b600080fd5b60007fffffffff0000000000000000000000000000000000000000000000000000000082169050919050565b61295881612923565b811461296357600080fd5b50565b6000813590506129758161294f565b92915050565b60006020828403121561299157612990612919565b5b600061299f84828501612966565b91505092915050565b60008115159050919050565b6129bd816129a8565b82525050565b60006020820190506129d860008301846129b4565b92915050565b600081519050919050565b600082825260208201905092915050565b60005b83811015612a185780820151818401526020810190506129fd565b60008484015250505050565b6000601f19601f8301169050919050565b6000612a40826129de565b612a4a81856129e9565b9350612a5a8185602086016129fa565b612a6381612a24565b840191505092915050565b60006020820190508181036000830152612a888184612a35565b905092915050565b6000819050919050565b612aa381612a90565b8114612aae57600080fd5b50565b600081359050612ac081612a9a565b92915050565b600060208284031215612adc57612adb612919565b5b6000612aea84828501612ab1565b91505092915050565b600073ffffffffffffffffffffffffffffffffffffffff82169050919050565b6000612b1e82612af3565b9050919050565b612b2e81612b13565b82525050565b6000602082019050612b496000830184612b25565b92915050565b612b5881612b13565b8114612b6357600080fd5b50565b600081359050612b7581612b4f565b92915050565b60008060408385031215612b9257612b91612919565b5b6000612ba085828601612b66565b9250506020612bb185828601612ab1565b9150509250929050565b612bc481612a90565b82525050565b6000602082019050612bdf6000830184612bbb565b92915050565b600080600060608486031215612bfe57612bfd612919565b5b6000612c0c86828701612b66565b9350506020612c1d86828701612b66565b9250506040612c2e86828701612ab1565b9150509250925092565b600081519050919050565b600082825260208201905092915050565b6000819050602082019050919050565b612c6d81612a90565b82525050565b6000612c7e82612af3565b9050919050565b612c8e81612c73565b82525050565b612c9d816129a8565b82525050565b60a082016000820151612cb96000850182612c64565b506020820151612ccc6020850182612c85565b506040820151612cdf6040850182612c85565b506060820151612cf26060850182612c64565b506080820151612d056080850182612c94565b50505050565b6000612d178383612ca3565b60a08301905092915050565b6000602082019050919050565b6000612d3b82612c38565b612d458185612c43565b9350612d5083612c54565b8060005b83811015612d81578151612d688882612d0b565b9750612d7383612d23565b925050600181019050612d54565b5085935050505092915050565b60006020820190508181036000830152612da88184612d30565b905092915050565b600060208284031215612dc657612dc5612919565b5b6000612dd484828501612b66565b91505092915050565b60a082016000820151612df36000850182612c64565b506020820151612e066020850182612c85565b506040820151612e196040850182612c85565b506060820151612e2c6060850182612c64565b506080820151612e3f6080850182612c94565b50505050565b600060a082019050612e5a6000830184612ddd565b92915050565b600080fd5b600080fd5b7f4e487b7100000000000000000000000000000000000000000000000000000000600052604160045260246000fd5b612ea282612a24565b810181811067ffffffffffffffff82111715612ec157612ec0612e6a565b5b80604052505050565b6000612ed461290f565b9050612ee08282612e99565b919050565b600067ffffffffffffffff821115612f0057612eff612e6a565b5b612f0982612a24565b9050602081019050919050565b82818337600083830152505050565b6000612f38612f3384612ee5565b612eca565b905082815260208101848484011115612f5457612f53612e65565b5b612f5f848285612f16565b509392505050565b600082601f830112612f7c57612f7b612e60565b5b8135612f8c848260208601612f25565b91505092915050565b60008060408385031215612fac57612fab612919565b5b600083013567ffffffffffffffff811115612fca57612fc961291e565b5b612fd685828601612f67565b9250506020612fe785828601612ab1565b9150509250929050565b612ffa816129a8565b811461300557600080fd5b50565b60008135905061301781612ff1565b92915050565b6000806040838503121561303457613033612919565b5b600061304285828601612b66565b925050602061305385828601613008565b9150509250929050565b600067ffffffffffffffff82111561307857613077612e6a565b5b61308182612a24565b9050602081019050919050565b60006130a161309c8461305d565b612eca565b9050828152602081018484840111156130bd576130bc612e65565b5b6130c8848285612f16565b509392505050565b600082601f8301126130e5576130e4612e60565b5b81356130f584826020860161308e565b91505092915050565b6000806000806080858703121561311857613117612919565b5b600061312687828801612b66565b945050602061313787828801612b66565b935050604061314887828801612ab1565b925050606085013567ffffffffffffffff8111156131695761316861291e565b5b613175878288016130d0565b91505092959194509250565b6000806040838503121561319857613197612919565b5b60006131a685828601612b66565b92505060206131b785828601612b66565b9150509250929050565b600080604083850312156131d8576131d7612919565b5b60006131e685828601612ab1565b92505060206131f785828601612ab1565b9150509250929050565b7f4e487b7100000000000000000000000000000000000000000000000000000000600052602260045260246000fd5b6000600282049050600182168061324857607f821691505b60208210810361325b5761325a613201565b5b50919050565b7f4552433732313a20617070726f76616c20746f2063757272656e74206f776e6560008201527f7200000000000000000000000000000000000000000000000000000000000000602082015250565b60006132bd6021836129e9565b91506132c882613261565b604082019050919050565b600060208201905081810360008301526132ec816132b0565b9050919050565b7f4552433732313a20617070726f76652063616c6c6572206973206e6f7420746f60008201527f6b656e206f776e6572206f7220617070726f76656420666f7220616c6c000000602082015250565b600061334f603d836129e9565b915061335a826132f3565b604082019050919050565b6000602082019050818103600083015261337e81613342565b9050919050565b7f4552433732313a2063616c6c6572206973206e6f7420746f6b656e206f776e6560008201527f72206f7220617070726f76656400000000000000000000000000000000000000602082015250565b60006133e1602d836129e9565b91506133ec82613385565b604082019050919050565b60006020820190508181036000830152613410816133d4565b9050919050565b7f4e487b7100000000000000000000000000000000000000000000000000000000600052601160045260246000fd5b600061345182612a90565b915061345c83612a90565b925082820190508082111561347457613473613417565b5b92915050565b600061348582612a90565b91507fffffffffffffffffffffffffffffffffffffffffffffffffffffffffffffffff82036134b7576134b6613417565b5b600182019050919050565b7f4e487b7100000000000000000000000000000000000000000000000000000000600052603260045260246000fd5b7f4552433732313a20696e76616c696420746f6b656e2049440000000000000000600082015250565b60006135276018836129e9565b9150613532826134f1565b602082019050919050565b600060208201905081810360008301526135568161351a565b9050919050565b7f4552433732313a2061646472657373207a65726f206973206e6f74206120766160008201527f6c6964206f776e65720000000000000000000000000000000000000000000000602082015250565b60006135b96029836129e9565b91506135c48261355d565b604082019050919050565b600060208201905081810360008301526135e8816135ac565b9050919050565b7f50726963652073686f756c6420626520657175616c206f72206c61726765742060008201527f7468616e20302e30350000000000000000000000000000000000000000000000602082015250565b600061364b6029836129e9565b9150613656826135ef565b604082019050919050565b6000602082019050818103600083015261367a8161363e565b9050919050565b7f546f74616c20737570706c7920697320657874656e6465640000000000000000600082015250565b60006136b76018836129e9565b91506136c282613681565b602082019050919050565b600060208201905081810360008301526136e6816136aa565b9050919050565b7f506c65617365207375626d6974207468652061736b696e67207072696365206960008201527f6e206f7264657220746f20636f6d706c65746520746865207075726368617365602082015250565b60006137496040836129e9565b9150613754826136ed565b604082019050919050565b600060208201905081810360008301526137788161373c565b9050919050565b7f4f6e6c79206f776e65722063616e2075706461746520746865206c697374696e60008201527f6720707269636500000000000000000000000000000000000000000000000000602082015250565b60006137db6027836129e9565b91506137e68261377f565b604082019050919050565b6000602082019050818103600083015261380a816137ce565b9050919050565b600081905092915050565b6000613827826129de565b6138318185613811565b93506138418185602086016129fa565b80840191505092915050565b6000613859828561381c565b9150613865828461381c565b91508190509392505050565b7f4552433732313a207472616e736665722066726f6d20696e636f72726563742060008201527f6f776e6572000000000000000000000000000000000000000000000000000000602082015250565b60006138cd6025836129e9565b91506138d882613871565b604082019050919050565b600060208201905081810360008301526138fc816138c0565b9050919050565b7f4552433732313a207472616e7366657220746f20746865207a65726f2061646460008201527f7265737300000000000000000000000000000000000000000000000000000000602082015250565b600061395f6024836129e9565b915061396a82613903565b604082019050919050565b6000602082019050818103600083015261398e81613952565b9050919050565b7f45524337323155524953746f726167653a2055524920736574206f66206e6f6e60008201527f6578697374656e7420746f6b656e000000000000000000000000000000000000602082015250565b60006139f1602e836129e9565b91506139fc82613995565b604082019050919050565b60006020820190508181036000830152613a20816139e4565b9050919050565b60008190508160005260206000209050919050565b60006020601f8301049050919050565b600082821b905092915050565b600060088302613a897fffffffffffffffffffffffffffffffffffffffffffffffffffffffffffffffff82613a4c565b613a938683613a4c565b95508019841693508086168417925050509392505050565b6000819050919050565b6000613ad0613acb613ac684612a90565b613aab565b612a90565b9050919050565b6000819050919050565b613aea83613ab5565b613afe613af682613ad7565b848454613a59565b825550505050565b600090565b613b13613b06565b613b1e818484613ae1565b505050565b5b81811015613b4257613b37600082613b0b565b600181019050613b24565b5050565b601f821115613b8757613b5881613a27565b613b6184613a3c565b81016020851015613b70578190505b613b84613b7c85613a3c565b830182613b23565b50505b505050565b600082821c905092915050565b6000613baa60001984600802613b8c565b1980831691505092915050565b6000613bc38383613b99565b9150826002028217905092915050565b613bdc826129de565b67ffffffffffffffff811115613bf557613bf4612e6a565b5b613bff8254613230565b613c0a828285613b46565b600060209050601f831160018114613c3d5760008415613c2b578287015190505b613c358582613bb7565b865550613c9d565b601f198416613c4b86613a27565b60005b82811015613c7357848901518255600182019150602085019450602081019050613c4e565b86831015613c905784890151613c8c601f891682613b99565b8355505b6001600288020188555050505b505050505050565b7f4552433732313a20617070726f766520746f2063616c6c657200000000000000600082015250565b6000613cdb6019836129e9565b9150613ce682613ca5565b602082019050919050565b60006020820190508181036000830152613d0a81613cce565b9050919050565b7f4552433732313a207472616e7366657220746f206e6f6e20455243373231526560008201527f63656976657220696d706c656d656e7465720000000000000000000000000000602082015250565b6000613d6d6032836129e9565b9150613d7882613d11565b604082019050919050565b60006020820190508181036000830152613d9c81613d60565b9050919050565b600081519050919050565b600082825260208201905092915050565b6000613dca82613da3565b613dd48185613dae565b9350613de48185602086016129fa565b613ded81612a24565b840191505092915050565b6000608082019050613e0d6000830187612b25565b613e1a6020830186612b25565b613e276040830185612bbb565b8181036060830152613e398184613dbf565b905095945050505050565b600081519050613e538161294f565b92915050565b600060208284031215613e6f57613e6e612919565b5b6000613e7d84828501613e44565b91505092915050565b7f4e487b7100000000000000000000000000000000000000000000000000000000600052601260045260246000fd5b7f4552433732313a206d696e7420746f20746865207a65726f2061646472657373600082015250565b6000613eeb6020836129e9565b9150613ef682613eb5565b602082019050919050565b60006020820190508181036000830152613f1a81613ede565b9050919050565b7f4552433732313a20746f6b656e20616c7265616479206d696e74656400000000600082015250565b6000613f57601c836129e9565b9150613f6282613f21565b602082019050919050565b60006020820190508181036000830152613f8681613f4a565b905091905056fea2646970667358221220584da695946d0d3917d40849cde9266477d46ce99d57e4e9d82e4225b284a69864736f6c63430008130033",
  "linkReferences": {},
  "deployedLinkReferences": {}
}